:1000000010C01FC01EC01DC01CC01BC01AC019C01C
:1000100018C017C016C015C014C013C012C0D8C075
:10002000F4C011241FBECFE5D2E0DEBFCDBF20E07B
:10003000A0E6B0E001C01D92A536B207E1F77DD180
:100040008CC1DECF892BF9F460936000D19A8BB319
:100050009091600092708D7F892B8BBBD09A80919C
:10006000600082FB882780F980FDD89A80FFD898AD
:10007000D79A8091600086958695869580FDDF9A57
:1000800080FFDF9808958091600087FF03C0D09AB9
:10009000D89A07C0829586958695837021F0D09A6C
:1000A000D898D79ADF98B89AC098B99A88B38D7FB4
:1000B000962F991F9927991F990F892B88BBB89A5A
:1000C000C09AB89AC098B99A88B38D7F66FD02C06D
:1000D00090E001C092E0892B88BBB89AC09AB89A88
:1000E000C098B99A88B38D7F65FD02C090E001C0C9
:1000F00092E0892B88BBB89AC09AB89AC098B99AEE
:1001000088B38D7F64FD02C090E001C092E0892B2E
:1001100088BBB89AC09AB89AC098B99A88B38D7FAC
:1001200063FD02C090E001C092E0892B88BBB89AC1
:10013000C09AB89AC098B99A88B38D7F62FD02C000
:1001400090E001C092E0892B88BBB89AC09AB89A17
:10015000C098B99A88B38D7F962F9270892B88BBEF
:10016000B89AC09AB89AC098B99A88B38D7F60FD42
:1001700002C090E001C092E0892B88BBB89AC09A77
:100180008091600087FD05C0829586958695837075
:1001900011F0D79ADF9A0895D298DA9A99B389B371
:1001A00059B349B3252F217030E0220F331F220F9E
:1001B000331F342F331F3327331F330F330F330FC6
:1001C000232B92FB992790F9292B8270822B08957B
:1001D0001F920F920FB60F9211248F93109264000A
:1001E00010926300D698CC9B02C0CE9BFCCFCE99D8
:1001F00002C088EF01C088EA8DB980EF8EB98F9177
:100200000F900FBE0F901F9018951F920F920FB670
:100210000F9211242F933F934F935F936F937F938C
:100220008F939F93AF93BF93EF93FF93809163005E
:10023000909164008230910509F447C028F400973A
:10024000C9F0019769F15DC08430910509F446C099
:1002500008F1059709F055C06FB180916100909148
:1002600062009C012F5F3F4F30936200209361003A
:10027000E9DE3DC010926200109261008FB18823C8
:1002800021F08FB186958C3041F4789B30C081E0AD
:1002900090E02FC08FB1882319F088EA8DB925C06E
:1002A00080916100909162009C012F5F3F4F3093DD
:1002B00062002093610070DF8FB982E090E090933C
:1002C000640080936300D69A10C083E090E090931E
:1002D000640080936300D6981FB811C085E090E059
:1002E0009093640080936300D69880E709C084E00F
:1002F00090E090936400809363001FB8D69A8EE7D5
:100300008EB9FF91EF91BF91AF919F918F917F91A6
:100310006F915F914F913F912F910F900FBE0F9072
:100320001F9018958AB380658ABBDC9ADE9AD698AE
:1003300088EA8DB980EF8EB90895D298D19AD9986C
:10034000D09AD898D79ADF9AB89AC098B99AC19893
:0E035000D19AD99AE7DF7894FFCFF894FFCFC7
:00000001FF
