:1000000010C01FC01EC01DC01CC01BC01AC019C01C
:1000100018C017C016C0F6C015C013C012C0D3C296
:10002000EFC211241FBECFE5D2E0DEBFCDBF20E07E
:10003000A0E6B0E001C01D92AF38B207E1F778D377
:1000400027C4DECF1F920F920FB60F9211248F9309
:100050009F93AF93BF93459942C08BB3897F8460D0
:100060008BBB8AB386608ABBC29919C080916F002E
:1000700090917000A0917100B09172000197A10958
:10008000B10980936F0090937000A0937100B093BA
:10009000720080916D0090916E00019718C0809160
:1000A0006F0090917000A0917100B0917200019664
:1000B000A11DB11D80936F0090937000A0937100FB
:1000C000B093720080916D0090916E0001969093B4
:1000D0006E0080936D008AB3897F826041C08BB3CC
:1000E000897F82608BBB8AB386608ABBC29919C044
:1000F00080916F0090917000A0917100B09172009A
:100100000197A109B10980936F0090937000A093AB
:100110007100B093720080916D0090916E00019714
:1001200018C080916F0090917000A0917100B09103
:1001300072000196A11DB11D80936F009093700015
:10014000A0937100B093720080916D0090916E0049
:10015000019690936E0080936D008AB3897F8460CE
:100160008ABBB89A88B398B3909590FB80F988BB06
:100170004498BF91AF919F918F910F900FBE0F90B8
:100180001F90189560916D0070916E0070937600CD
:100190006093750010926E0010926D004DE750E074
:1001A00080917700909178005BD1880F991F909390
:1001B00074008093730020917700309178001216BC
:1001C00013065CF41816190614F48CBF01C01CBE8B
:1001D000D39ADB9ABA9AC29A0CC0232B69F097FF84
:1001E00003C081958CBF01C01CBED39ADB9ABA9A1A
:1001F000C298B99AC19A0895D39ADB98B99AC198CE
:100200001CBE08951F920F920FB60F9211242F93C8
:100210003F934F935F936F937F938F939F93AF938E
:10022000BF93EF93FF938091680090916900A09134
:100230006A00B0916B0086579F4FAF4FBF4F8093BE
:10024000680090936900A0936A00B0936B0080915E
:100250006C00882351F080916C00815080936C0079
:1002600080916C00811101C0439A80916600909149
:100270006700892B51F0809166009091670001978B
:10028000909367008093660007C08BE090E09093A6
:1002900067008093660076DFFF91EF91BF91AF9189
:1002A0009F918F917F916F915F914F913F912F918E
:1002B0000F900FBE0F901F901895262F009719F4DE
:1002C00060936500089540916000509161006091D5
:1002D000620070916300452F562F672F7727722B8E
:1002E00040936000509361006093620070936300DC
:1002F00020916500820F911D0A9761F48091600042
:1003000090916100A0916200B0916300B093780079
:10031000A093770008950F931F93209165008C019F
:10032000020F111D0830110551F188F40115110556
:10033000D9F004301105E1F51092640040916F008E
:1003400050917000609171007091720029C00A3064
:100350001105E1F00C30110559F51092640040913F
:1003600073005091740018C01092640040916800AE
:100370005091690060916A0070916B0011C01092F9
:100380006400409177005091780006C0109264009C
:100390004091750050917600052E000C660B770B8E
:1003A000409360005093610060936200709363001B
:1003B00020916500820F911D0F9740F01092600010
:1003C00010926100109262001092630040916000F0
:1003D000509161006091620070916300909164009F
:1003E00081E0890F80936400990F990F990F8A011A
:1003F0009B0104C036952795179507959A95D2F7D6
:10040000D901C8011F910F910895CF93DF93FB018C
:10041000E9011A821B821C821D82198218829F8325
:100420008E83798768875B874A87BC016F5F7F4FC0
:100430008FEF9FE7C8D17D876C879F012F5F3F4F6C
:10044000032E000C440B550B6FEF7FEF8FEF9FE3F4
:10045000CDD12E873F87488B598BDF91CF9108955F
:100460008F929F92AF92BF92EF92FF920F931F9342
:10047000CF93DF937B01EA019C01261B370B8C8510
:100480009D858217930764F09195819591092817AE
:1004900039074CF06E817F81C9016BD18C0105C099
:1004A0000FEF1FE702C001E010E8C901330FAA0BEC
:1004B000BB0B4A815B816C817D819A01AB01280F66
:1004C000391F4A1F5B1F8E859F85A889B9898217AE
:1004D0009307A407B5075CF48A839B83AC83BD8331
:1004E00088248A94982CA82C9FE3B92E24C0B09518
:1004F000A095909581959F4FAF4FBF4F2817390713
:100500004A075B075CF48A839B83AC83BD838824A2
:100510008394912CA12C80ECB82E0DC02A833B83B0
:100520004C835D8368857985072E000C880B990BB9
:1005300031D14B015C01888199816A857B858E1957
:100540009F0917D1F982E882012E000C220B330B90
:10055000800E911EA21EB31E092E000CAA0BBB0B0F
:10056000BC01CD01680D791D8A1D9B1D20E830E07E
:1005700040E050E03BD1213080E838078FEF48075A
:10058000580724F421E030E84FEF5FEFDA01C901AA
:10059000811520E89207A105B10524F08FEF9FE7B0
:1005A000A0E0B0E0DF91CF911F910F91FF90EF900D
:1005B000BF90AF909F908F900895FC01128213829C
:1005C0001482158208951F920F920FB60F92112474
:1005D0008F9310927C0010927B00D698CC9B02C027
:1005E000CE9BFCCFCE9902C088EF01C088EA8DB9BE
:1005F00080EF8EB98F910F900FBE0F901F901895BE
:100600001F920F920FB60F9211242F933F934F9387
:100610005F936F937F938F939F93AF93BF93EF936A
:10062000FF9380917B0090917C008230910509F4CA
:1006300047C028F40097C9F0019769F15DC0843084
:10064000910509F446C008F1059709F055C06FB14E
:100650008091790090917A009C012F5F3F4F3093F9
:100660007A002093790029DE3DC010927A00109222
:1006700079008FB1882321F08FB186958A3041F4BB
:10068000789B30C081E090E02FC08FB1882319F0B3
:1006900088EA8DB925C08091790090917A009C01FB
:1006A0002F5F3F4F30937A002093790034DE8FB96B
:1006B00082E090E090937C0080937B00D69A10C0FB
:1006C00083E090E090937C0080937B00D6981FB8E5
:1006D00011C085E090E090937C0080937B00D698D9
:1006E00080E709C084E090E090937C0080937B00D9
:1006F0001FB8D69A8EE78EB9FF91EF91BF91AF9157
:100700009F918F917F916F915F914F913F912F9129
:100710000F900FBE0F901F9018958AB380658ABB0B
:10072000DC9ADE9AD69888EA8DB980EF8EB9089562
:10073000B99AC19AD39ADB98BA9AC29AD79ADF9893
:10074000449A439A83E280BF84E083BF89B7816083
:1007500089BF10927800109277002DE730E046E0D4
:1007600050E066E070E086E290E04FDED6DF7894FD
:10077000FFCF0024552704C0080E591F880F991F6A
:10078000009729F076956795B8F37105B9F7802D34
:10079000952F0895EE27FF27AA27BB2708C0A20F91
:1007A000B31FE41FF51F220F331F441F551F9695DB
:1007B00087957795679598F37040A9F7009799F713
:1007C000BD01CF01089597FB072E16F4009406D0C3
:1007D00077FD08D027D007FC05D03EF49095819591
:1007E0009F4F0895709561957F4F0895052E97FB53
:1007F00016F400940FD057FD05D028D007FC02D086
:1008000046F408C050954095309521953F4F4F4F85
:100810005F4F089590958095709561957F4F8F4FAC
:100820009F4F0895AA1BBB1B51E107C0AA1FBB1F06
:10083000A617B70710F0A61BB70B881F991F5A956C
:10084000A9F780959095BC01CD010895A1E21A2EDB
:10085000AA1BBB1BFD010DC0AA1FBB1FEE1FFF1F64
:10086000A217B307E407F50720F0A21BB30BE40BB4
:10087000F50B661F771F881F991F1A9469F76095FB
:100880007095809590959B01AC01BD01CF010895B5
:04089000F894FFCF0A
:00000001FF
