:1000000010C01FC01EC01DC01CC01BC01AC019C01C
:1000100018C017C016C038C115C013C012C0D1C255
:10002000EDC211241FBECFE5D2E0DEBFCDBF20E080
:10003000A0E6B0E001C01D92AC38B207E1F776D37C
:100040004FC4DECF1F920F920FB60F9211242F9341
:100050003F934F935F936F937F938F939F93AF9350
:10006000459960C08BB3897F84608BBB8AB38660FF
:100070008ABBC29928C020916A0030916B004091E0
:100080006C0050916D0060916E0070916F008091D6
:10009000700090917100AFEFE1D320936A0030932C
:1000A0006B0040936C0050936D0060936E007093F2
:1000B0006F00809370009093710080916800909120
:1000C0006900019727C020916A0030916B00409130
:1000D0006C0050916D0060916E0070916F00809186
:1000E000700090917100A1E0B9D320936A00309321
:1000F0006B0040936C0050936D0060936E007093A2
:100100006F008093700090937100809168009091CF
:100110006900019690936900809368008AB3897F93
:1001200082605FC08BB3897F82608BBB8AB386603D
:100130008ABBC29928C020916A0030916B0040911F
:100140006C0050916D0060916E0070916F00809115
:10015000700090917100AFEF81D320936A003093CB
:100160006B0040936C0050936D0060936E00709331
:100170006F0080937000909371008091680090915F
:100180006900019727C020916A0030916B0040916F
:100190006C0050916D0060916E0070916F008091C5
:1001A000700090917100A1E059D320936A003093C0
:1001B0006B0040936C0050936D0060936E007093E1
:1001C0006F0080937000909371008091680090910F
:1001D0006900019690936900809368008AB3897FD3
:1001E00084608ABBB89A88B398B3909590FB80F9E5
:1001F00088BB4498AF919F918F917F916F915F9150
:100200004F913F912F910F900FBE0F901F90189517
:100210006091680070916900709373006093720040
:1002200010926900109268004AE750E080917400D3
:100230009091750013D1880F991F2091740030910F
:100240007500121613065CF41816190614F48CBF08
:1002500001C01CBED39ADB9ABA9AC29A0CC0232B57
:1002600069F097FF03C081958CBF01C01CBED39A73
:10027000DB9ABA9AC298B99AC19A0895D39ADB9830
:10028000B99AC1981CBE08951F920F920FB60F9293
:1002900011242F933F934F935F936F937F938F938B
:1002A0009F93AF93BF93EF93FF9380916700882351
:1002B00051F08091670081508093670080916700C2
:1002C000811101C0439A8091650090916600892B4D
:1002D00051F08091650090916600019790936600BF
:1002E0008093650007C08BE090E090936600809358
:1002F00065008EDFFF91EF91BF91AF919F918F913C
:100300007F916F915F914F913F912F910F900FBE11
:100310000F901F901895CF93DF93009759F4609337
:1003200064001092610010926000109263001092BD
:10033000620039C020916400222319F0243009F1B1
:1003400032C08330910578F520E030E030916200D2
:10035000262B3093630020936200029721F5C90198
:1003600080936A0090936B0010926C0010926D0065
:1003700010926E0010926F00109270001092710037
:1003800012C08330910578F420E030E030916000B5
:10039000262B3093610020936000029721F4309364
:1003A000750020937400DF91CF9108950F931F93F0
:1003B000CF9320916400211121C084309105F0F485
:1003C00020916A0030916B0040916C00C0916D00EB
:1003D000B0916E00A0916F00F0917000E0917100FB
:1003E00068EF7FEFC4D18C01085E1F4F5C2F6B2F2D
:1003F0007A2F8F2F9E2F14D2822F01C080E0CF91B1
:100400001F910F910895CF93DF93FB01E9011A82A9
:100410001B821C821D82198218829F838E8379879A
:1004200068875B874A87BC016F5F7F4F8FEF9FE7CD
:10043000C8D17D876C879F012F5F3F4F032E000C33
:10044000440B550B6FEF7FEF8FEF9FE3CDD12E87DE
:100450003F87488B598BDF91CF9108958F929F9260
:10046000AF92BF92EF92FF920F931F93CF93DF93C0
:100470007B01EA019C01261B370B8C859D85821729
:10048000930764F0919581959109281739074CF0ED
:100490006E817F81C9016BD18C0105C00FEF1FE711
:1004A00002C001E010E8C901330FAA0BBB0B4A815F
:1004B0005B816C817D819A01AB01280F391F4A1F36
:1004C0005B1F8E859F85A889B98982179307A4072A
:1004D000B5075CF48A839B83AC83BD8388248A94AC
:1004E000982CA82C9FE3B92E24C0B095A095909588
:1004F00081959F4FAF4FBF4F281739074A075B07BA
:100500005CF48A839B83AC83BD8388248394912C81
:10051000A12C80ECB82E0DC02A833B834C835D83D5
:1005200068857985072E000C880B990B31D14B011A
:100530005C01888199816A857B858E199F0917D115
:10054000F982E882012E000C220B330B800E911EE3
:10055000A21EB31E092E000CAA0BBB0BBC01CD01C1
:10056000680D791D8A1D9B1D20E830E040E050E0B9
:100570003BD1213080E838078FEF4807580724F433
:1005800021E030E84FEF5FEFDA01C901811520E883
:100590009207A105B10524F08FEF9FE7A0E0B0E03E
:1005A000DF91CF911F910F91FF90EF90BF90AF908F
:1005B0009F908F900895FC011282138214821582FD
:1005C00008951F920F920FB60F9211248F931092DD
:1005D000790010927800D698CC9B02C0CE9BFCCFBD
:1005E000CE9902C088EF01C088EA8DB980EF8EB93C
:1005F0008F910F900FBE0F901F9018951F920F9222
:100600000FB60F9211242F933F934F935F936F93E5
:100610007F938F939F93AF93BF93EF93FF938091BB
:100620007800909179008230910509F447C028F450
:100630000097C9F0019769F15DC08430910509F414
:1006400046C008F1059709F055C06FB1809176005A
:10065000909177009C012F5F3F4F3093770020935C
:10066000760059DE3DC010927700109276008FB16F
:10067000882321F08FB186958B3041F4789B30C070
:1006800081E090E02FC08FB1882319F088EA8DB9FE
:1006900025C080917600909177009C012F5F3F4F9D
:1006A000309377002093760081DE8FB982E090E06E
:1006B0009093790080937800D69A10C083E090E000
:1006C0009093790080937800D6981FB811C085E088
:1006D00090E09093790080937800D69880E709C0E5
:1006E00084E090E090937900809378001FB8D69AC8
:1006F0008EE78EB9FF91EF91BF91AF919F918F914E
:100700007F916F915F914F913F912F910F900FBE0D
:100710000F901F9018958AB380658ABBDC9ADE9A89
:10072000D69888EA8DB980EF8EB90895B99AC19AA2
:10073000D39ADB98BA9AC29AD79ADF98449A439A86
:1007400083E280BF84E083BF89B7816089BF109254
:100750007500109274002AE730E046E050E066E051
:1007600070E086E290E04FDED6DF7894FFCF002481
:10077000552704C0080E591F880F991F009729F0AC
:1007800076956795B8F37105B9F7802D952F089583
:10079000EE27FF27AA27BB2708C0A20FB31FE41F1D
:1007A000F51F220F331F441F551F96958795779588
:1007B000679598F37040A9F7009799F7BD01CF01AD
:1007C000089597FB072E16F4009406D077FD08D005
:1007D00051D007FC05D03EF4909581959F4F089528
:1007E000709561957F4F0895052E97FB16F4009440
:1007F0000FD057FD05D052D007FC02D046F408C0F8
:1008000050954095309521953F4F4F4F5F4F08953C
:1008100090958095709561957F4F8F4F9F4F08956C
:1008200097FB10F8169400080F93083098F00850C2
:10083000232F342F452F562F672F782F892F902D58
:10084000F4CF059497958795779567955795479534
:10085000379527950A95AAF70F9108950024A7FDCB
:1008600000942A0F301D401D501D601D701D801DFD
:10087000901D0895AA1BBB1B51E107C0AA1FBB1FF7
:10088000A617B70710F0A61BB70B881F991F5A951C
:10089000A9F780959095BC01CD010895A1E21A2E8B
:1008A000AA1BBB1BFD010DC0AA1FBB1FEE1FFF1F14
:1008B000A217B307E407F50720F0A21BB30BE40B64
:1008C000F50B661F771F881F991F1A9469F76095AB
:1008D0007095809590959B01AC01BD01CF01089565
:0408E000F894FFCFBA
:00000001FF
