:1000000010C02AC050C028C027C026C025C024C0A8
:1000100023C022C021C069C11FC01EC01DC0C0C6F0
:10002000DCC611241FBECFE5D2E0DEBFCDBF10E09D
:10003000A0E6B0E0EAE2F1E102C005900D92A6363A
:10004000B107D9F720E0A6E6B0E001C01D92A53FB8
:10005000B207E1F75AD767C8D3CF97B3936097BB7E
:1000600080FDC19A80FFC1988695817080FDC09AFD
:1000700080FFC09866BF08959AB39C609ABB80FDCC
:10008000DA9A80FFDA989BB381FB222720F930E0CF
:1000900083E0220F331F8A95E1F7892F877F282B72
:1000A0002BBB6CBF08951F920F920FB60F921124B5
:1000B000AF92BF92CF92DF92EF92FF920F931F9376
:1000C0002F933F934F935F936F937F938F939F9360
:1000D000EF93E9B3E2708091F000E817B9F18091F5
:1000E000DB009091DC0001969093DC008093DB00B4
:1000F0002091E500922F990F990B392F492F592FF5
:10010000692F792F892FA090DD00B090DE00C0907C
:10011000DF00D090E000E090E100F090E20000917C
:10012000E3001091E400B7D72093DD003093DE00A8
:100130004093DF005093E0006093E1007093E20091
:100140008093E3009093E400E093F000E9B3E17062
:100150008091EF00E817B9F18091B7009091B80055
:1001600001969093B8008093B7002091C100922F20
:10017000990F990B392F492F592F692F792F892FD3
:10018000A090B900B090BA00C090BB00D090BC0065
:10019000E090BD00F090BE000091BF001091C00043
:1001A0007AD72093B9003093BA004093BB005093A4
:1001B000BC006093BD007093BE008093BF0090931D
:1001C000C000E093EF00EF919F918F917F916F912D
:1001D0005F914F913F912F911F910F91FF90EF9061
:1001E000DF90CF90BF90AF900F900FBE0F901F90F9
:1001F00018950F931F93CF93DF93EC018B01698DBB
:100200007A8D7D8B6C8B1A8E198E8A899B89181634
:100210001906ECF421E02BA3AE010FD59F8B8E8B3A
:10022000BC01990F880B990B2FEF30E040E050E0B4
:10023000CCD620E830E040E050E0F3D6288F2223EF
:1002400019F0622F81E024C060E083E021C00097B4
:10025000E9F02FEF2BA3AE01919581959109EDD493
:100260009F8B8E8BBC01990F880B990B2FEF30E081
:1002700040E050E0AAD620E830E040E050E0D1D69F
:10028000288F222309F3622F82E002C060E080E021
:10029000F801DF91CF911F910F91099481E0809334
:1002A000790080919A0090919B008230910519F01D
:1002B0008430910551F46DE270E082EC90E099DFBA
:1002C0006CE370E08EE990E094CF009729F460E051
:1002D00080E0C3DE60E006C0019731F46FEF80E09C
:1002E000BCDE6FEF80E0C8CE08951F920F920FB66C
:1002F0000F9211242F933F934F935F936F937F93AC
:100300008F939F93AF93BF93EF93FF9320917A00C6
:1003100030917B0040917C0050917D0060917E0087
:1003200070917F0080918000909181003F5F4F4FDE
:100330005F4F6F4F7F4F8F4F9F4F20937A003093C7
:100340007B0040937C0050937D0060937E0070930F
:100350007F008093800090938100809178008F5F70
:100360008093780080917800837099F480919C004C
:1003700090919D00009769F0019790939D00809364
:100380009C00892B31F481E090E090939B00809356
:100390009A0080917800811101C080DFFF91EF9178
:1003A000BF91AF919F918F917F916F915F914F918D
:1003B0003F912F910F900FBE0F901F9018952F9285
:1003C0003F924F925F926F927F928F929F92AF92E5
:1003D000BF92CF92DF92EF92FF920F931F93CF9332
:1003E000A0919A00B0919B00CD010497029708F06C
:1003F000ACC08091EE00843010F01092EE00C091FD
:10040000EE008C2E912CC40166E070E0CDD5FC018D
:10041000EE57FF4F84819581892B09F494C0209178
:100420007A0030917B0040917C0050917D0060917A
:100430007E0070917F008091800090918100A0905B
:10044000E600B090E700C090E800D090E900E090AE
:10045000EA00F090EB000091EC001091ED0024D642
:1004600008F473C060817181149759F47093D500BA
:100470006093D400828193819093B1008093B00007
:1004800025C01616170614F481E008C06115710521
:1004900019F0619582E002C060E080E0DEDDC40119
:1004A00066E070E081D58E579F4FFC0162817381B9
:1004B0001616170614F481E008C06115710519F0CD
:1004C000619582E002C060E080E0D6DDA0907A0015
:1004D000B0907B00C0907C00D0907D00E0907E00CA
:1004E000F0907F000091800010918100C40166E0CF
:1004F00070E05AD58E579F4FFC016481758180E072
:1005000090E028EE33E040E050E05FD51B012C0185
:100510009B01A20160E070E080E090E0BCD52093F8
:10052000E6003093E7004093E8005093E9006093C1
:10053000EA007093EB008093EC009093ED00CF5FA6
:10054000C093EE0002C01092EE00CF911F910F9168
:10055000FF90EF90DF90CF90BF90AF909F908F90E3
:100560007F906F905F904F903F902F9008950097ED
:1005700019F4609377000895E091660021E02E0F52
:1005800020936600EF70F0E0E959FF4F60832091FF
:100590007700820F911D8631910509F466C030F411
:1005A0008A30910561F00C97A9F108958232910586
:1005B00009F4EBC08234910509F412C10895E09169
:1005C0006600F0E03197EF70FF27E959FF4F208177
:1005D000E0916600F0E03197EF70FF27E959FF4F97
:1005E0001082E0916600F0E03297EF70FF27E95942
:1005F000FF4F8081E0916600F0E03297EF70FF27B7
:10060000E959FF4F108290E0922B90939B008093CA
:100610009A000895E0916600F0E03197EF70FF27AF
:10062000E959FF4F2081E0916600F0E03197EF70CB
:10063000FF27E959FF4F1082E0916600F0E0329702
:10064000EF70FF27E959FF4F8081E0916600F0E0ED
:100650003297EF70FF27E959FF4F108290E0922BFD
:1006600090939D0080939C000895E0916600F0E0D7
:100670003197EF70FF27E959FF4F2081E091660025
:10068000F0E03197EF70FF27E959FF4F1082E091BA
:100690006600F0E03297EF70FF27E959FF4F808145
:1006A000E0916600F0E03297EF70FF27E959FF4FC5
:1006B000108290E0922B9093650080936400E0910B
:1006C0006600F0E03397EF70FF27E959FF4F208174
:1006D000E0916600F0E03397EF70FF27E959FF4F94
:1006E0001082E0916600F0E03497EF70FF27E9593F
:1006F000FF4F6081E0916600F0E03497EF70FF27D4
:10070000E959FF4F108270E0722B70936300609381
:100710006200E0916600F0E03597EF70FF27E9593D
:10072000FF4F2081E0916600F0E03597EF70FF27E2
:10073000E959FF4F1082E0916600F0E03697EF70C4
:10074000FF27E959FF4F4081E0916600F0E03697BE
:10075000EF70FF27E959FF4F108250E0522B509362
:1007600061004093600022EC30E03CD24091600098
:100770005091610060916200709163002EE930E059
:1007800080916400909165002DC2E0916600F0E0D8
:100790003197EF70FF27E959FF4F2081E091660004
:1007A000F0E03197EF70FF27E959FF4F1082E09199
:1007B0006600F0E03297EF70FF27E959FF4F808124
:1007C000E0916600F0E03297EF70FF27E959FF4FA4
:1007D000108290E0922B9093D5008093D4000895DE
:1007E000E0916600F0E03197EF70FF27E959FF4F85
:1007F0002081E0916600F0E03197EF70FF27E95922
:10080000FF4F1082E0916600F0E03297EF70FF2713
:10081000E959FF4F8081E0916600F0E03297EF7078
:10082000FF27E959FF4F108290E0922B9093B1007F
:100830008093B0000895AF92BF92CF92DF92EF9273
:10084000FF920F931F93CF93DF9320917700820F36
:10085000911D8732910509F44FC190F580319105C2
:1008600009F4CDC070F48830910509F40DC18A30C7
:10087000910509F400C1892B09F096C1E0E0F0E090
:1008800015C18232910509F4B1C060F4809709F076
:100890008BC1E0916600EF70F0E09091D400809100
:1008A000D500FAC08432910509F497C0869709F003
:1008B0007BC1E0916600EF70F0E08091E50022C11D
:1008C0008434910509F45EC060F58833910509F41C
:1008D0006BC0B0F4C09709F067C1A090DD00B09084
:1008E000DE00C090DF00D090E000E090E100F090EA
:1008F000E200D091E300C091E400E0E0F0E006C146
:100900008034910509F447C08234910509F04CC147
:10091000E0916600EF70F0E09091B2008091B3003A
:10092000BBC08734910509F40CC158F48634910595
:1009300009F03AC1E0916600EF70F0E08091C100EB
:10094000E1C08035910509F403C18835910509F0AE
:100950002BC1E0916600EF70F0E09091B7008091BC
:10096000B800E959FF4F9083E0916600F0E03196BE
:10097000EF70FF27E959FF4F80831092B800109263
:10098000B70012C1E0916600EF70F0E09091B40002
:100990008091B50081C0E0916600EF70F0E0909129
:1009A000B0008091B10078C0E0916600EF70F0E097
:1009B0009091DB008091DC00E959FF4F9083E0913A
:1009C0006600F0E03196EF70FF27E959FF4F808312
:1009D0001092DC001092DB00E7C0E0916600EF703F
:1009E000F0E09091D8008091D90056C0E091660067
:1009F000EF70F0E09091D6008091D7004DC0E0916B
:100A00006600EF70F0E09091640080916500E95914
:100A1000FF4F9083E0916600F0E03196EF70FF2782
:100A2000E959FF4F8083E0916600F0E03296EF7065
:100A3000FF279091620080916300E959FF4F9083F6
:100A4000E0916600F0E03396EF70FF27E959FF4F21
:100A50008083E0916600F0E03496EF70FF2790917C
:100A6000600080916100E959FF4F9083E09166003A
:100A7000F0E0359618C0E0916600EF70F0E09091DC
:100A80009C0080919D0008C0E0916600EF70F0E04E
:100A900090919A0080919B00E959FF4F9083E091DB
:100AA0006600F0E03196EF70FF272CC08091660061
:100AB000DF01A80FB11DAF70BB2720917A003091E4
:100AC0007B0040917C0050917D0060917E00709190
:100AD0007F0080918000909181008F01C3E0000F22
:100AE000111FCA95E1F7BBD2A959BF4F2C9331967C
:100AF000E830F105D9F658C0E0916600EF70F0E0FB
:100B00008091DA00E959FF4F80834EC080916600E2
:100B1000DF01A80FB11DAF70BB278F0193E0000F5D
:100B2000111F9A95E1F79501A601B7018D2F9C2F12
:100B300094D2A959BF4F2C933196E830F10531F783
:100B400033C0E0916600EF70F0E08091B600DACF3C
:100B5000A090B900B090BA00C090BB00D090BC008B
:100B6000E090BD00F090BE00D091BF00C091C000E9
:100B7000E0E0F0E080916600DF01A80FB11DAF70EA
:100B8000BB278F0183E0000F111F8A95E1F79501C4
:100B9000A601B7018D2F9C2F60D2A959BF4F2C936E
:100BA0003196E830F10531F7E0916600EF70F0E042
:100BB000E959FF4F8081E0916600EF70F0E0E9595C
:100BC000FF4F1082909166009F5F90936600DF91C7
:100BD000CF911F910F91FF90EF90DF90CF90BF903A
:100BE000AF900895CF93DF93FB01E9011A821B8236
:100BF0001C821D82198218829F838E837987688761
:100C00005B874A87BC016F5F7F4F8FEF9FE7F6D10D
:100C10007D876C879F012F5F3F4F032E000C440B95
:100C2000550B6FEF7FEF8FEF9FE3FBD12E873F8751
:100C3000488B598BDF91CF9108958F929F92AF92FD
:100C4000BF92EF92FF920F931F93CF93DF937B019D
:100C5000EA019C01261B370B8C859D858217930723
:100C600064F0919581959109281739074CF06E81B0
:100C70007F81C90199D18C0105C00FEF1FE702C028
:100C800001E010E8C901330FAA0BBB0B4A815B815D
:100C90006C817D819A01AB01280F391F4A1F5B1FB0
:100CA0008E859F85A889B98982179307A407B50700
:100CB0005CF48A839B83AC83BD8388248A94982CBC
:100CC000A82C9FE3B92E24C0B095A095909581954E
:100CD0009F4FAF4FBF4F281739074A075B075CF498
:100CE0008A839B83AC83BD8388248394912CA12C1D
:100CF00080ECB82E0DC02A833B834C835D836885CE
:100D00007985072E000C880B990B5FD14B015C0194
:100D1000888199816A857B858E199F0945D1F982E1
:100D2000E882012E000C220B330B800E911EA21EB6
:100D3000B31E092E000CAA0BBB0BBC01CD01680D24
:100D4000791D8A1D9B1D20E830E040E050E069D10C
:100D5000213080E838078FEF4807580724F421E056
:100D600030E84FEF5FEFDA01C901811520E8920703
:100D7000A105B10524F08FEF9FE7A0E0B0E0DF917F
:100D8000CF911F910F91FF90EF90BF90AF909F90E8
:100D90008F900895FC0112821382148215820895A7
:100DA0001F920F920FB60F9211248F931092F4009E
:100DB0001092F300D698CC9B02C0CE9BFCCFCE996C
:100DC00002C088EF01C088EA8DB980EF8EB98F919B
:100DD0000F900FBE0F901F9018951F920F920FB695
:100DE0000F9211242F933F934F935F936F937F93B1
:100DF0008F939F93AF93BF93EF93FF938091F300F3
:100E00009091F4008230910509F447C028F40097CE
:100E1000C9F0019769F15DC08430910509F446C0BD
:100E200008F1059709F055C06FB18091F1009091DC
:100E3000F2009C012F5F3F4F3093F2002093F100AE
:100E400096DB3DC01092F2001092F1008FB1882322
:100E500021F08FB186958A3041F4789B30C081E0D3
:100E600090E02FC08FB1882319F088EA8DB925C092
:100E70008091F1009091F2009C012F5F3F4F3093E1
:100E8000F2002093F100D7DC8FB982E090E09093DC
:100E9000F4008093F300D69A10C083E090E0909322
:100EA000F4008093F300D6981FB811C085E090E05D
:100EB0009093F4008093F300D69880E709C084E013
:100EC00090E09093F4008093F3001FB8D69A8EE7D9
:100ED0008EB9FF91EF91BF91AF919F918F917F91CB
:100EE0006F915F914F913F912F910F900FBE0F9097
:100EF0001F9018958AB380658ABBDC9ADE9AD698D3
:100F000088EA8DB980EF8EB90895D79ABA9AD198A8
:100F1000D098D99AD89A909A919A80E18BBF87B34A
:100F2000836087BBC198C0988AB38C608ABBDA980B
:100F3000DB9816BE1CBE83EA80BF82E083BF89B700
:100F4000816089BF409160005091610060916200B2
:100F50007091630022EC30E0809164009091650014
:100F600041DE40916000509161006091620070919B
:100F700063002EE930E0809164009091650032DEDC
:100F8000B9DF789480917900813019F4109279005A
:100F900016DA85B7877E85BF85B7806285BF88955D
:100FA00085B78F7D85BFEECF0024552704C0080E7E
:100FB000591F880F991F009729F076956795B8F308
:100FC0007105B9F7802D952F0895EE27FF27AA27E1
:100FD000BB2708C0A20FB31FE41FF51F220F331F4A
:100FE000441F551F969587957795679598F37040A0
:100FF000A9F7009799F7BD01CF01089597FB072E38
:1010000016F4009406D077FD08D057D007FC05D021
:101010003EF4909581959F4F0895709561957F4F0F
:101020000895052E97FB16F400940FD057FD05D0B8
:1010300058D007FC02D046F408C050954095309532
:1010400021953F4F4F4F5F4F089590958095709534
:1010500061957F4F8F4F9F4F089597FB10F816941F
:1010600000080F93083098F00850232F342F452F95
:10107000562F672F782F892F902DF4CF05949795B1
:1010800087957795679557954795379527950A954D
:10109000AAF70F9108952A0D3B1D4C1D5D1D6E1D75
:1010A0007F1D801F911F08952A153B054C055D0586
:1010B0006E057F05800791070895AA1BBB1B51E1B0
:1010C00007C0AA1FBB1FA617B70710F0A61BB70BB8
:1010D000881F991F5A95A9F780959095BC01CD015D
:1010E0000895A1E21A2EAA1BBB1BFD010DC0AA1F69
:1010F000BB1FEE1FFF1FA217B307E407F50720F081
:10110000A21BB30BE40BF50B661F771F881F991FFB
:101110001A9469F760957095809590959B01AC0144
:0A112000BD01CF010895F894FFCF40
:06112A0001000100C000FD
:00000001FF
