:1000000010C02AC09CC028C027C026C025C024C05C
:1000100023C022C021C00AC31FC01EC01DC087C884
:10002000A3C811241FBECFE5D2E0DEBFCDBF10E0D4
:10003000A0E6B0E0E6E3F6E102C005900D92A4363A
:10004000B107D9F721E0A4E6B0E001C01D92A932C2
:10005000B207E1F721D9EDCAD3CF6F927F928F9289
:100060009F92AF92BF92CF92DF92EF92FF920F9347
:100070001F93CF93DF9300D01F92CDB7DEB788B721
:1000800081708B832B8182B790E0922B9A83898336
:1000900089809A806090780070907900B0917A00A1
:1000A000A0917B00F0917C00E0917D0000917E00AA
:1000B00010917F00940140E050E060E070E080E04B
:1000C00090E05301CB2EDA2EEF2EFE2E61DA0F9048
:1000D0000F900F90DF91CF911F910F91FF90EF90B4
:1000E000DF90CF90BF90AF909F908F907F906F9058
:1000F000089597B3936097BB80FDC19A80FFC19824
:100100008695817080FDC09A80FFC09866BF089573
:100110009AB39C609ABB80FDDA9A80FFDA989BB311
:1001200081FB222720F930E083E0220F331F8A95DC
:10013000E1F7892F877F282B2BBB6CBF08951F9277
:100140000F920FB60F9211244F925F926F927F928F
:100150008F929F92AF92BF92CF92DF92EF92FF92D7
:100160000F931F932F933F934F935F936F937F93BF
:100170008F939F93AF93BF93CF93DF93EF93FF93AF
:1001800089B3827090912401891709F49CC08093EF
:100190002401811198C061DF29013A014B01D82F58
:1001A000C92FA0901C01B0901D01C0901E01D090DD
:1001B0001F01E0902001F090210100912201109197
:1001C0002301EFD959016A017B018C0120E432E45B
:1001D0004FE050E060E070E080E090E071D96901AC
:1001E0007A0140921C0150921D0160921E01709292
:1001F0001F018092200190922101D0932201C0938F
:10020000230123E030E040E050E06091F90070917C
:10021000FA008091FB009091FC0008D9CC0CDD1C09
:10022000EE1CFF1CC60ED71EE81EF91E52E0F69407
:10023000E794D794C7945A95D1F7C092F900D09219
:10024000FA00E092FB00F092FC008091FD0090919A
:10025000FE0001969093FE008093FD008091F700D0
:100260009091F80001969093F8008093F700209108
:100270000701922F990F990B392F492F592F692F69
:10028000792F892FA090FF00B0900001C09001014C
:10029000D0900201E0900301F0900401009105016B
:1002A0001091060175D92093FF003093000140930F
:1002B0000101509302016093030170930401809344
:1002C00005019093060189B3817090911B018917F4
:1002D00009F49CC080931B01811198C0BEDE2901E6
:1002E0003A014B01D82FC92FA0901301B0901401EF
:1002F000C0901501D0901601E0901701F090180100
:100300000091190110911A014CD959016A017B0120
:100310008C0120E432E44FE050E060E070E080E0E7
:1003200090E0CED869017A014092130150921401F5
:100330006092150170921601809217019092180137
:10034000D0931901C0931A0123E030E040E050E05F
:100350006091CF007091D0008091D1009091D20037
:1003600065D8CC0CDD1CEE1CFF1CC60ED71EE81E8B
:10037000F91E32E0F694E794D794C7943A95D1F7F2
:10038000C092CF00D092D000E092D100F092D20083
:100390008091D3009091D40001969093D4008093E3
:1003A000D3008091CD009091CE0001969093CE0025
:1003B0008093CD002091DD00922F990F990B392F5A
:1003C000492F592F692F792F892FA090D500B090F0
:1003D000D600C090D700D090D800E090D900F0901F
:1003E000DA000091DB001091DC00D2D82093D50018
:1003F0003093D6004093D7005093D8006093D90033
:100400007093DA008093DB009093DC00FF91EF9112
:10041000DF91CF91BF91AF919F918F917F916F911C
:100420005F914F913F912F911F910F91FF90EF900E
:10043000DF90CF90BF90AF909F908F907F906F9004
:100440005F904F900F900FBE0F901F901895EF92F6
:10045000FF920F931F93CF93DF93EC018B016B8D72
:100460007C8D7D8B6C8B8A899B8918161906FCF410
:1004700021E029A7AE01A8D57C019F8B8E8BBC0102
:10048000990F880B990B2FEF30E040E050E0CED76A
:1004900020E830E040E050E0F5D7288F1E141F041C
:1004A00014F4622F02C0188E60E082E027C000972B
:1004B00011F12FEF29A7AE0191958195910984D56E
:1004C0007C019F8B8E8BBC01990F880B990B2FEFB2
:1004D00030E040E050E0AAD720E830E040E050E0D3
:1004E000D1D7288F1E141F0414F4622F02C0188E57
:1004F00060E081E003C0188E60E080E0F801DF91E9
:10050000CF911F910F91FF90EF9009948091B000CF
:100510009091B1008230910519F08430910551F429
:1005200069E770E08EED90E092DF68E870E084EBC0
:1005300090E08DCF009729F460E080E0DADD60E0A4
:1005400006C0019731F46FEF80E0D3DD6FEF80E0FC
:10055000DFCD0895CF92DF92EF92FF92CF93DF939A
:1005600081E080937700CEEDD0E06F8D78A180E0C0
:1005700090E020E432E44FE050E058D76C01EE24E4
:10058000FF2423E030E040E050E06B8D7C8D8D8DCA
:100590009E8D4CD7CC0CDD1CEE1CFF1CDC01CB016E
:1005A0008C0D9D1DAE1DBF1D42E0B695A79597957C
:1005B00087954A95D1F78B8F9C8FAD8FBE8F18A2F0
:1005C0001F8EC4EBD0E06F8D78A180E090E020E436
:1005D00032E44FE050E02AD76C01EE24FF2423E000
:1005E00030E040E050E06B8D7C8D8D8D9E8D1ED770
:1005F000CC0CDD1CEE1CFF1CDC01CB018C0D9D1D09
:10060000AE1DBF1DF2E0B695A79597958795FA9513
:10061000D1F78B8F9C8FAD8FBE8F18A21F8EDF916D
:10062000CF91FF90EF90DF90CF9008951F920F929F
:100630000FB60F9211242F933F934F935F936F93B5
:100640007F938F939F93AF93BF93EF93FF932091EB
:1006500078003091790040917A0050917B00609150
:100660007C0070917D0080917E0090917F003F5FC3
:100670004F4F5F4F6F4F7F4F8F4F9F4F20937800AB
:100680003093790040937A0050937B0060937C0014
:1006900070937D0080937E0090937F008091760020
:1006A0008F5F8093760080917600837099F48091BB
:1006B000B2009091B300009769F001979093B30056
:1006C0008093B200892B31F481E090E09093B100E7
:1006D0008093B000809176008F7009F417DF8091CD
:1006E0007600811101C036DFFF91EF91BF91AF918C
:1006F0009F918F917F916F915F914F913F912F913A
:100700000F900FBE0F901F9018952F923F924F920F
:100710005F926F927F928F929F92AF92BF92CF9291
:10072000DF92EF92FF920F931F93CF93A091B000AF
:10073000B091B100CD010497029708F0ACC0809150
:100740001201883010F010921201C09112018C2E0B
:10075000912CC40166E070E058D6FC01E058FF4FD0
:1007600084819581892B09F494C02091780030917F
:10077000790040917A0050917B0060917C007091EB
:100780007D0080917E0090917F00A0900A01B09042
:100790000B01C0900C01D0900D01E0900E01F09083
:1007A0000F01009110011091110104D708F473C0DA
:1007B00060817181149759F47093F1006093F00097
:1007C000828193819093C7008093C60025C016163E
:1007D000170614F481E008C06115710519F06195E0
:1007E00082E002C060E080E084DCC40166E070E08A
:1007F0000CD680589F4FFC01628173811616170634
:1008000014F481E008C06115710519F0619582E06A
:1008100002C060E080E07CDCA0907800B0907900BD
:10082000C0907A00D0907B00E0907C00F0907D003A
:1008300000917E0010917F00C40166E070E0E5D574
:1008400080589F4FFC016481758180E090E028EE24
:1008500033E040E050E0EAD51B012C019B01A201EE
:1008600060E070E080E090E093D620930A0130933E
:100870000B0140930C0150930D0160930E01709396
:100880000F018093100190931101CF5FC09312016B
:1008900002C010921201CF911F910F91FF90EF9023
:1008A000DF90CF90BF90AF909F908F907F906F9090
:1008B0005F904F903F902F900895009719F46093A8
:1008C00075000895E091640021E02E0F20936400EC
:1008D000EF70F0E0EB59FF4F608320917500820FBD
:1008E000911D8631910509F466C030F48A30910576
:1008F00061F00C97A9F108958232910509F40CC1B9
:100900008234910509F433C10895E0916400F0E068
:100910003197EF70FF27EB59FF4F2081E091640082
:10092000F0E03197EF70FF27EB59FF4F1082E09115
:100930006400F0E03297EF70FF27EB59FF4F8081A2
:10094000E0916400F0E03297EF70FF27EB59FF4F22
:10095000108290E0922B9093B1008093B0000895A4
:10096000E0916400F0E03197EF70FF27EB59FF4F03
:100970002081E0916400F0E03197EF70FF27EB59A0
:10098000FF4F1082E0916400F0E03297EF70FF2794
:10099000EB59FF4F8081E0916400F0E03297EF70F7
:1009A000FF27EB59FF4F108290E0922B9093B300FA
:1009B0008093B2000895E0916400F0E03197EF7009
:1009C000FF27EB59FF4F2081E0916400F0E0319761
:1009D000EF70FF27EB59FF4F1082E0916400F0E0C9
:1009E0003297EF70FF27EB59FF4F8081E091640051
:1009F000F0E03297EF70FF27EB59FF4F108290E045
:100A0000922B9093630080936200E0916400F0E089
:100A10003397EF70FF27EB59FF4F2081E09164007F
:100A2000F0E03397EF70FF27EB59FF4F1082E09112
:100A30006400F0E03497EF70FF27EB59FF4F6081BF
:100A4000E0916400F0E03497EF70FF27EB59FF4F1F
:100A5000108270E0722B7093610060936000E091EF
:100A60006400F0E03597EF70FF27EB59FF4F2081CE
:100A7000E0916400F0E03597EF70FF27EB59FF4FEE
:100A80001082E0916400F0E03697EF70FF27EB5999
:100A9000FF4F4081E0916400F0E03697EF70FF2750
:100AA000EB59FF4F108250E0522B509309014093B5
:100AB00008012EED30E05DD240910801509109010E
:100AC000609160007091610024EB30E080916200E1
:100AD000909163004ED21092FF001092000110928C
:100AE0000101109202011092030110920401109270
:100AF0000501109206011092D5001092D6001092B6
:100B0000D7001092D8001092D9001092DA001092FB
:100B1000DB001092DC000895E0916400F0E0319772
:100B2000EF70FF27EB59FF4F2081E0916400F0E068
:100B30003197EF70FF27EB59FF4F1082E09164006F
:100B4000F0E03297EF70FF27EB59FF4F8081E09183
:100B50006400F0E03297EF70FF27EB59FF4F1082EF
:100B600090E0922B9093F1008093F0000895E09133
:100B70006400F0E03197EF70FF27EB59FF4F2081C1
:100B8000E0916400F0E03197EF70FF27EB59FF4FE1
:100B90001082E0916400F0E03297EF70FF27EB598C
:100BA000FF4F8081E0916400F0E03297EF70FF2703
:100BB000EB59FF4F108290E0922B9093C7008093E7
:100BC000C6000895AF92BF92CF92DF92EF92FF924C
:100BD0000F931F93CF93DF9320917500820F911D88
:100BE0008732910509F44FC190F58031910509F4E0
:100BF000CDC070F48830910509F40DC18A3091059B
:100C000009F400C1892B09F096C1E0E0F0E015C1BC
:100C10008232910509F4B1C060F4809709F08BC16C
:100C2000E0916400EF70F0E09091F0008091F100AD
:100C3000FAC08432910509F497C0869709F07BC108
:100C4000E0916400EF70F0E08091070122C18434EC
:100C5000910509F45EC060F58833910509F46BC015
:100C6000B0F4C09709F067C1A090FF00B0900001F8
:100C7000C0900101D0900201E0900301F0900401C6
:100C8000D0910501C0910601E0E0F0E006C180349A
:100C9000910509F447C08234910509F04CC1E091F7
:100CA0006400EF70F0E09091C8008091C900BBC073
:100CB0008734910509F40CC158F48634910509F084
:100CC0003AC1E0916400EF70F0E08091DD00E1C096
:100CD0008035910509F403C18835910509F02BC1D0
:100CE000E0916400EF70F0E09091CD008091CE0033
:100CF000EB59FF4F9083E0916400F0E03196EF7084
:100D0000FF27EB59FF4F80831092CE001092CD0049
:100D100012C1E0916400EF70F0E09091CA00809100
:100D2000CB0081C0E0916400EF70F0E09091C600CC
:100D30008091C70078C0E0916400EF70F0E090917E
:100D4000F7008091F800EB59FF4F9083E091640029
:100D5000F0E03196EF70FF27EB59FF4F8083109240
:100D6000F8001092F700E7C0E0916400EF70F0E047
:100D70009091F4008091F50056C0E0916400EF700E
:100D8000F0E09091F2008091F3004DC0E09164009A
:100D9000EF70F0E09091620080916300EB59FF4F9B
:100DA0009083E0916400F0E03196EF70FF27EB59FB
:100DB000FF4F8083E0916400F0E03296EF70FF27F0
:100DC0009091600080916100EB59FF4F9083E0911A
:100DD0006400F0E03396EF70FF27EB59FF4F8083FC
:100DE000E0916400F0E03496EF70FF2790910801E5
:100DF00080910901EB59FF4F9083E0916400F0E08E
:100E0000359618C0E0916400EF70F0E09091B20068
:100E10008091B30008C0E0916400EF70F0E0909121
:100E2000B0008091B100EB59FF4F9083E0916400D6
:100E3000F0E03196EF70FF272CC080916400DF0155
:100E4000A80FB11DAF70BB272091780030917900B9
:100E500040917A0050917B0060917C0070917D0000
:100E600080917E0090917F008F01C3E0000F111FE1
:100E7000CA95E1F771D3AB59BF4F2C933196E83047
:100E8000F105D9F658C0E0916400EF70F0E0809170
:100E9000F600EB59FF4F80834EC080916400DF0164
:100EA000A80FB11DAF70BB278F0193E0000F111F7A
:100EB0009A95E1F79501A601B7018D2F9C2F4AD392
:100EC000AB59BF4F2C933196E830F10531F733C061
:100ED000E0916400EF70F0E08091CC00DACFA09058
:100EE000D500B090D600C090D700D090D800E09048
:100EF000D900F090DA00D091DB00C091DC00E0E096
:100F0000F0E080916400DF01A80FB11DAF70BB2736
:100F10008F0183E0000F111F8A95E1F79501A6016B
:100F2000B7018D2F9C2F16D3AB59BF4F2C93319601
:100F3000E830F10531F7E0916400EF70F0E0EB5933
:100F4000FF4F8081E0916400EF70F0E0EB59FF4FBC
:100F50001082909164009F5F90936400DF91CF9125
:100F60001F910F91FF90EF90DF90CF90BF90AF90C7
:100F70000895CF93DF93FB01E9011A821B821C8243
:100F80001D82198218829F838E83798768875B8789
:100F90004A87BC016F5F7F4F8FEF9FE760D27D87ED
:100FA0006C879F012F5F3F4F032E000C440B550BA6
:100FB0006FEF7FEF8FEF9FE365D22E873F87488BE0
:100FC000598BDF91CF9108958F929F92AF92BF92EC
:100FD000EF92FF920F931F93CF93DF937B01EA0170
:100FE0009C01261B370B8C859D858217930764F027
:100FF000919581959109281739074CF06E817F8171
:10100000C90103D28C0105C00FEF1FE702C001E048
:1010100010E8C901330FAA0BBB0B4A815B816C81BD
:101020007D819A01AB01280F391F4A1F5B1F8E85F6
:101030009F85A889B98982179307A407B5075CF42F
:101040008A839B83AC83BD8388248A94982CA82CA4
:101050009FE3B92E24C0B095A095909581959F4FA0
:10106000AF4FBF4F281739074A075B075CF48A83E5
:101070009B83AC83BD8388248394912CA12C80EC2A
:10108000B82E0DC02A833B834C835D8368857985A8
:10109000072E000C880B990BC9D14B015C0188818C
:1010A00099816A857B858E199F09AFD1F982E88283
:1010B000012E000C220B330B800E911EA21EB31EBC
:1010C000092E000CAA0BBB0BBC01CD01680D791DCC
:1010D0008A1D9B1D20E830E040E050E0D3D1213054
:1010E00080E838078FEF4807580724F421E030E8FC
:1010F0004FEF5FEFDA01C901811520E89207A105E2
:10110000B10524F08FEF9FE7A0E0B0E0DF91CF9131
:101110001F910F91FF90EF90BF90AF909F908F9095
:101120000895FC01128213821482158208951F9281
:101130000F920FB60F9211248F93109228011092E4
:101140002701D698CC9B02C0CE9BFCCFCE9902C083
:1011500088EF01C088EA8DB980EF8EB98F910F902A
:101160000FBE0F901F9018951F920F920FB60F92FF
:1011700011242F933F934F935F936F937F938F939C
:101180009F93AF93BF93EF93FF938091270190912B
:1011900028018230910509F447C028F40097C9F06E
:1011A000019769F15DC08430910509F446C008F1EA
:1011B000059709F055C06FB18091250190912601E6
:1011C0009C012F5F3F4F309326012093250175DB53
:1011D0003DC010922601109225018FB1882321F085
:1011E0008FB186958A3041F4789B30C081E090E0E1
:1011F0002FC08FB1882319F088EA8DB925C080915E
:101200002501909126019C012F5F3F4F30932601CD
:1012100020932501D7DC8FB982E090E090932801DC
:1012200080932701D69A10C083E090E09093280124
:1012300080932701D6981FB811C085E090E0909365
:10124000280180932701D69880E709C084E090E0C8
:1012500090932801809327011FB8D69A8EE78EB904
:10126000FF91EF91BF91AF919F918F917F916F917E
:101270005F914F913F912F910F900FBE0F901F9054
:1012800018958AB380658ABBDC9ADE9AD69888EA7C
:101290008DB980EF8EB90895D79ABA9AD198D0981F
:1012A000D99AD89A909A919A80E18BBF87B383603C
:1012B00087BBC198C0988AB38C608ABBDA98DB98E8
:1012C00016BE1CBE83EA80BF82E083BF89B78160FF
:1012D00089BF4091080150910901609160007091AF
:1012E00061002EED30E0809162009091630041DE5C
:1012F0004091080150910901609160007091610076
:1013000024EB30E0809162009091630032DEB9DF1F
:1013100078944CE251E0509381004093800064ED5A
:101320007EEF709383006093820020E137E2309378
:1013300085002093840010928700109286001092FE
:1013400089001092880088EE93E090938B00809340
:101350008A0070938D0060938C0050938F004093AF
:101360008E00309391002093900010929300109281
:1013700092001092950010929400909397008093A1
:101380009600909399008093980048E15CEF509309
:101390009B0040939A0030939D0020939C001092F4
:1013A0009F0010929E001092A1001092A0009093B6
:1013B000A3008093A2005093A5004093A4009093B3
:1013C000A7008093A6003093A9002093A800109254
:1013D000AB001092AA001092AD001092AC00909356
:1013E000AF008093AE0080917700813019F41092A5
:1013F00077008BD985B7877E85BF85B7806285BF2B
:10140000889585B78F7D85BFEECF0024552704C012
:10141000080E591F880F991F009729F07695679538
:10142000B8F37105B9F7802D952F0895EE27FF27A2
:10143000AA27BB2708C0A20FB31FE41FF51F220F66
:10144000331F441F551F969587957795679598F399
:101450007040A9F7009799F7BD01CF01089597FB58
:10146000072E16F4009406D077FD08D0ACD007FC08
:1014700005D03EF4909581959F4F089570956195A4
:101480007F4F0895052E97FB16F400940FD057FD5B
:1014900005D0ADD007FC02D046F408C05095409569
:1014A000309521953F4F4F4F5F4F08959095809510
:1014B000709561957F4F8F4F9F4F0895689401C03D
:1014C000E8948F929F92CF93DF9305D0DF91CF91D5
:1014D0009F908F90089588249924F401E401B0E44A
:1014E0001B2ED4019D158E049F04E007F10738F4EC
:1014F000FC014B01CA01B901AD019E011694220FF6
:10150000331F441F551F661F771F881F991F881C94
:10151000991CEE1FFF1FCC1FDD1FAA1FBB1F8A14C3
:101520009B04EC05FD05CE05DF05A007B10748F0DB
:101530008A189B08EC09FD09CE09DF09A00BB10B45
:1015400021601A94E1F62EF49401AF01BE01CD01A1
:10155000000C089597FB10F8169400080F930830BC
:1015600098F00850232F342F452F562F672F782FB0
:10157000892F902DF4CF059497958795779567954A
:1015800057954795379527950A95AAF70F9108958E
:101590002A0D3B1D4C1D5D1D6E1D7F1D801F911F63
:1015A00008952A193B094C095D096E097F09800BD2
:1015B000910B08952A153B054C055D056E057F05C9
:1015C000800791070895AA1BBB1B51E107C0AA1F02
:1015D000BB1FA617B70710F0A61BB70B881F991FD4
:1015E0005A95A9F780959095BC01CD010895A1E287
:1015F0001A2EAA1BBB1BFD010DC0AA1FBB1FEE1F8D
:10160000FF1FA217B307E407F50720F0A21BB30BD7
:10161000E40BF50B661F771F881F991F1A9469F753
:1016200060957095809590959B01AC01BD01CF01AF
:061630000895F894FFCFBD
:04163600010040006F
:00000001FF
