:100000002AC044C043C042C053C140C03FC03EC0EC
:100010003DC03CC03BC002C139C038C037C01FC260
:1000200080C100003A00370000003B0038000000AB
:100030003900360001010101010101010202020142
:1000400002040810204080040201000000000004A7
:1000500003020100000011241FBECFE5D2E0DEBF85
:10006000CDBF10E0A0E6B0E0EAE9FAE002C00590FA
:100070000D92A236B107D9F721E0A2E6B0E001C0A7
:100080001D92A237B207E1F707D205C5B9CF82307A
:1000900099F018F4813069F00895833019F08430B4
:1000A00021F008958FB58F7702C08FB58F7D8FBDFA
:1000B000089580B78F7702C080B78F7D80BF089585
:1000C000CF93DF93E2E5F0E08491E7E4F0E0D491B0
:1000D000ECE3F0E0C491CC2389F08111D8DFEC2F60
:1000E000F0E0EE0FFF1FE25DFF4FA591B491EC91A0
:1000F000ED2381E090E021F480E002C080E090E018
:10010000DF91CF9108951F93CF93DF93282F30E095
:10011000F901E65BFF4F8491F901E15CFF4FD49157
:10012000F901EC5CFF4FC491CC23B9F0162F81117B
:10013000AEDFEC2FF0E0EE0FFF1FE85DFF4FA59163
:10014000B4919FB7F894111104C08C91D095D82325
:1001500002C0EC91DE2BDC939FBFDF91CF911F910A
:100160000895CF93DF9390E0FC01E15CFF4F249171
:10017000FC01EC5CFF4F8491882361F190E0880FD3
:10018000991FFC01EE5DFF4FC591D491FC01E85D24
:10019000FF4FA591B491611109C09FB7F894888170
:1001A000209582238883EC912E230BC0623061F46A
:1001B0009FB7F8948881322F309583238883EC9100
:1001C0002E2B2C939FBF06C08FB7F894E8812E2B5F
:1001D00028838FBFDF91CF9108958E3008F08E5025
:1001E00093B183FB222720F930E045E0220F331F33
:1001F0004A95E1F79F7D292B23B990917101929542
:10020000990F990F907C8770892B87B9369A369908
:10021000FECF84B125B190E0922B08951F920F92EA
:100220000FB60F9211242F933F938F939F93AF9309
:10023000BF9380916D0190916E01A0916F01B0917B
:10024000700130916C0120E3230F2D3720F440968C
:10025000A11DB11D05C023EB230F4196A11DB11DAA
:1002600020936C0180936D0190936E01A0936F01B8
:10027000B09370018091680190916901A0916A0129
:10028000B0916B010196A11DB11D809368019093FF
:100290006901A0936A01B0936B01BF91AF919F91E7
:1002A0008F913F912F910F900FBE0F901F90189537
:1002B0001F920F920FB60F9211242F938F939F933B
:1002C0008091780090917900009749F0019719F496
:1002D00021E02093670080937800909379008091CB
:1002E0007A0090917B00009749F0019719F421E082
:1002F0002093600080937A0090937B0080916C0043
:1003000090916D00009729F0019680936C00909376
:100310006D009F918F912F910F900FBE0F901F90A6
:1003200018951F920F920FB60F9211242F933F939F
:100330004F935F938F939F93EF93FF93809165000B
:100340009091660082309105F1F128F4009761F0F8
:100350000197E9F077C08430910509F43EC0A0F020
:10036000059709F442C06EC01092640010926300B9
:100370008FB1882309F45DC08FB190E09595879582
:10038000099709F05BC055C08FB1811157C08091AA
:1003900063009091640001969093640080936300E1
:1003A000E091620081E08E0F80936200F0E0E859F6
:1003B000FF4F80818FB982E090E090936600809338
:1003C0006500D69A3DC083E090E0909366008093EC
:1003D0006500D6981FB88EE734C085E090E0909312
:1003E000660080936500D6982BC08FB12091630082
:1003F00030916400A9014F5F5F4F509364004093B8
:100400006300232B59F48093620084E090E0909382
:100410006600809365001FB8D69ADDCFE091620038
:1004200091E09E0F90936200F0E0E859FF4F8083C7
:10043000ECCF789BEACF81E090E0E9CF88EA8DB9F4
:1004400080E78EB9FF91EF919F918F915F914F91CE
:100450003F912F910F900FBE0F901F9018951F92F4
:100460000F920FB60F9211248F9310926600109284
:100470006500D698CC9B02C0CE9BFCCFCE9902C023
:1004800088EF01C088EA8DB980EF8EB98F910F9007
:100490000FBE0F901F901895789480B7826080BF30
:1004A00080B7816080BF83B7826083BF83B781607C
:1004B00083BF89B7816089BF1EBC8EB582608EBD47
:1004C0008FB581608FBD3298319A309A379A88E71C
:1004D000809378001092790010927A0010927B003D
:1004E00061E088E03EDE60E088E00DDE60E087E00D
:1004F00038DE60E080E035DE60E081E032DE60E042
:1005000082E02FDE60E083E02CDE61E08AE0FBDD4C
:1005100060E08AE026DE84B7877F84BF81B588618A
:1005200081BD86E181BD81B5806481BD8AB380656E
:100530008ABBDC9ADE9AD69888EA8DB980EF8EB9AC
:10054000CC24CA9453E0D52EE12CF12C00E010E02D
:1005500066E0A62E78E7B72EA092710180E03DDE1E
:10056000BC01990F880B990B20E03AE040E050E085
:1005700057D2A70196016DD2CA01B90158D129E11C
:1005800037E34DE850E4B9D126D1F8946093880060
:1005900070938900789481E020DEBC01990F880B6C
:1005A000990B20E03AE040E050E03AD2A7019601F2
:1005B00050D2CA01B9013BD129E137E34DE850E4FB
:1005C0009CD109D1F89460938A0070938B00789441
:1005D00082E003DEBC01990F880B990B20E03AE022
:1005E00040E050E01DD2A701960133D2CA01B90103
:1005F0001ED129E137E34DE850E47FD1ECD0F894E7
:1006000060938C0070938D00789489E0E6DDBC01E6
:10061000990F880B990B20E03AE040E050E000D2BF
:10062000A701960116D2CA01B90101D129E137E328
:100630004DE850E462D1CFD0F89460939800709365
:10064000990078948BE0C9DDBC01990F880B990B58
:1006500020E03AE040E050E0E3D1A7019601F9D173
:10066000CA01B901E4D029E137E34DE850E445D1AE
:10067000B2D0F89460939A0070939B0078948DE0C8
:10068000ACDDBC01990F880B990B20E03AE040E00B
:1006900050E0C6D1A7019601DCD1CA01B901C7D08B
:1006A00029E137E34DE850E428D195D0F8946093E0
:1006B0009C0070939D007894F894809168009091CC
:1006C0006900982789279827A0E0B0E0BA2FA92FC2
:1006D000982F882720916A00822BBA2FA92F982F54
:1006E000882720916B00822B0196A11DB11D80935C
:1006F000680090936900A0936A00B0936B007894AF
:1007000087E06BDD811522E0920734F0893F23E01A
:10071000920724F4C3E003C0C1E001C0C2E09370BB
:100720009C2E9294990C990C20EC9222812C882971
:100730009929F89480937000909371007894C13057
:1007400031F460E088E0DFDCC093600008C0C330B3
:1007500059F461E088E0D7DC81E080936000B092DA
:1007600078001092790018C0ABDC892B51F0809191
:100770006700813089F4109267001092600060E099
:1007800009C080916000813039F4109260001092AD
:10079000670061E088E0B7DC379892DC892B19F0BC
:1007A00085B7877E03C085B7877E806185BF85B7A3
:1007B000806285BF85B7806285BF889585B78F7D4C
:1007C00085BF85B78F7D85BF379A0115110509F45F
:1007D000C3CE16DCC1CE70D088F09F5790F0B92FF1
:1007E0009927B751A0F0D1F0660F771F881F991F86
:1007F0001AF0BA95C9F712C0B13081F077D0B1E0E4
:10080000089574C0672F782F8827B85F39F0B93FF3
:10081000CCF3869577956795B395D9F73EF4909587
:100820008095709561957F4F8F4F9F4F0895E89405
:1008300009C097FB3EF490958095709561957F4F28
:100840008F4F9F4F9923A9F0F92F96E9BB279395D6
:10085000F695879577956795B795F111F8CFFAF4E6
:10086000BB0F11F460FF1BC06F5F7F4F8F4F9F4F17
:1008700016C0882311F096E911C0772321F09EE875
:10088000872F762F05C0662371F096E8862F70E0DB
:1008900060E02AF09A95660F771F881FDAF7880FB5
:1008A0009695879597F9089557FD9058440F551FD1
:1008B00059F05F3F71F04795880F97FB991F61F0E2
:1008C0009F3F79F087950895121613061406551F59
:1008D000F2CF4695F1DF08C0161617061806991FC5
:1008E000F1CF86957105610508940895E894BB27BA
:1008F00066277727CB0197F908950AD080C071D079
:1009000028F076D018F0952309F062C067C0EFCFC9
:10091000CBDFA8F39923D9F35523C9F3950F50E002
:10092000551FAA27EE27FF27BB27002408946795A9
:1009300020F4E20FF31FB41F0A1E220F331F441FBF
:10094000AA1F6695A9F7779530F4F30FB41F0A1E16
:10095000121E08F46395330F441FAA1F221F7695B9
:1009600099F7879520F4B40F0A1E121E631F440FD7
:10097000AA1F221F331F8695A9F7862F712D602D80
:1009800011249F5750408AF0E1F088234AF0EE0F7F
:10099000FF1FBB1F661F771F881F91505040A9F78C
:1009A0009E3F510570F014C0A2CF5F3FECF3983E1C
:1009B000DCF3869577956795B795F795E7959F5FF3
:1009C000C1F7FE2B880F911D9695879597F908958D
:1009D00097F99F6780E870E060E008959FEF80ECF2
:1009E000089500240A941616170618060906089595
:1009F00000240A9412161306140605060895092EFB
:100A00000394000C11F4882352F0BB0F40F4BF2B69
:100A100011F460FF04C06F5F7F4F8F4F9F4F0895A9
:100A2000EE27FF27AA27BB2708C0A20FB31FE41F8A
:100A3000F51F220F331F441F551F969587957795F5
:100A4000679598F37040A9F7009799F7BD01CF011A
:100A50000895A1E21A2EAA1BBB1BFD010DC0AA1FFF
:100A6000BB1FEE1FFF1FA217B307E407F50720F017
:100A7000A21BB30BE40BF50B661F771F881F991F92
:100A80001A9469F760957095809590959B01AC01DB
:0A0A9000BD01CF010895F894FFCFD7
:020A9A00010059
:00000001FF
