:100000002AC039C038C037C036C035C034C033C04C
:1000100032C031C030C0EEC037C12DC02CC0CDC2FF
:10002000A5C100003900360000003A00370000008A
:100030003B0038000101010101010101020202013E
:1000400002040810204080040201000000000004A7
:1000500003020100000011241FBECFE5D2E0DEBF85
:10006000CDBF20E0A0E6B0E001C01D92A438B207E9
:10007000E1F7C0D23CC3C4CF823099F018F481308C
:1000800069F00895833019F0843021F008958FB518
:100090008F7702C08FB58F7D8FBD089580B78F7722
:1000A00002C080B78F7D80BF08951F93CF93DF93E9
:1000B000282F30E0F901E65BFF4F8491F901E15C04
:1000C000FF4FD491F901EC5CFF4FC491CC23B9F000
:1000D000162F8111D1DFEC2FF0E0EE0FFF1FE25D54
:1000E000FF4FA591B4919FB7F894111104C08C9162
:1000F000D095D82302C0EC91DE2BDC939FBFDF911B
:10010000CF911F910895CF93DF9390E0FC01E15CC4
:10011000FF4F2491FC01EC5CFF4F8491882361F137
:1001200090E0880F991FFC01E85DFF4FC591D491C5
:10013000FC01E25DFF4FA591B491611109C09FB729
:10014000F8948881209582238883EC912E230BC01C
:10015000623061F49FB7F8948881322F3095832301
:100160008883EC912E2B2C939FBF06C08FB7F894F9
:10017000E8812E2B28838FBFDF91CF910895CF93F5
:10018000DF93EC0161E087E0BEDF209711F460E0CF
:1001900004C0CF3FD10529F461E087E0DF91CF9122
:1001A00084CFE1E5F0E0E491E23091F038F4E13021
:1001B000D1F480B7806880BFC6BF19C0E33069F052
:1001C000E43089F48FB580628FBDD9BDC8BD0FC042
:1001D00080B7806280BFCCBF0AC08FB580688FBDFA
:1001E000DBBDCABD04C0C038D105B4F6D0CFDF91A5
:1001F000CF9108951F920F920FB60F9211242F9353
:100200003F938F939F93AF93BF9380918000909182
:100210008100A0918200B091830030917F0020E3A3
:10022000230F2D3720F44096A11DB11D05C023EBEF
:10023000230F4196A11DB11D20937F008093800064
:1002400090938100A0938200B093830080917B0003
:1002500090917C00A0917D00B0917E000196A11D3F
:10026000B11D80937B0090937C00A0937D00B093A0
:100270007E00BF91AF919F918F913F912F910F90F1
:100280000FBE0F901F9018951F920F920FB60F92EE
:1002900011242F933F934F935F936F937F938F938B
:1002A0009F93AF93BF93CF93DF93EF93FF93E2E5D9
:1002B000F0E08491E7E4F0E0D491ECE3F0E0C49165
:1002C000CC2369F08111D8DEEC2FF0E0EE0FFF1F98
:1002D000EE5DFF4FA591B491EC91ED2391F4209147
:1002E00073003091740040917500509176006091D8
:1002F0007700709178008091790090917A00AFEF4B
:1003000011C020917300309174004091750050919C
:1003100076006091770070917800809179009091DB
:100320007A00A1E0D8D120937300309374004093F9
:1003300075005093760060937700709378008093F7
:10034000790090937A00FF91EF91DF91CF91BF9167
:10035000AF919F918F917F916F915F914F913F915D
:100360002F910F900FBE0F901F9018951F920F9214
:100370000FB60F9211242F933F934F935F936F9378
:100380007F938F939F93AF93BF93CF93DF93EF931D
:10039000FF9380917100909172008230910509F471
:1003A00053C028F4009761F00197E9F0F3C084305E
:1003B000910509F453C0A0F0059709F457C0EAC0AD
:1003C0001092700010926F008FB1882309F4D9C089
:1003D0008FB190E0959587950B9709F0D7C0D1C064
:1003E0008FB18111D3C080916F0090917000AC01EA
:1003F0004F5F5F4F5093700040936F0030916E00DD
:10040000311119C084309105B0F468EF7FEF52D1FB
:100410009C01285E3F4F80916A0090916B00A091F3
:100420006C00B0916D0004C0B695A795979587951F
:100430002A95D2F7282F2FB982E090E0909372008E
:1004400080937100D69AA4C083E090E090937200EC
:1004500080937100D6981FB88EE79BC085E090E02E
:100460009093720080937100D69892C08FB12091C2
:100470006F0030917000A9014F5F5F4F5093700083
:1004800040936F002115310509F05AC080936E002A
:10049000813001F158F0823011F184E090E09093C6
:1004A0007200809371001FB8D69AD6CF2FB7F894F8
:1004B0008091800090918100A0918200B091830092
:1004C0002FBF80936A0090936B00A0936C00B09351
:1004D0006D00E3CF1092690010926800DECF80912A
:1004E000730080936000809174008093610080911C
:1004F0007500809362008091760080936300809104
:1005000077008093640080917800809365008091EB
:1005100079008093660080917A0080936700109242
:100520007300109274001092750010927600109271
:100530007700109278001092790010927A00ADCF77
:1005400090916E00913009F0A8CF2330310508F06A
:10055000A4CF90916800D92F90E0C92FC82BD093D9
:100560006900C09368002230310509F096CFD7FDAD
:1005700002C060E001C061E088E097DDCE01FFDDF0
:100580008CCF789B8ACF81E090E089CF88EA8DB9C3
:1005900080E78EB9FF91EF91DF91CF91BF91AF913D
:1005A0009F918F917F916F915F914F913F912F918B
:1005B0000F900FBE0F901F9018951F920F920FB6BD
:1005C0000F9211248F931092720010927100D6989E
:1005D000CC9B02C0CE9BFCCFCE9902C088EF01C05D
:1005E00088EA8DB980EF8EB98F910F900FBE0F9072
:1005F0001F901895789480B7826080BF80B7816023
:1006000080BF83B7826083BF83B7816083BF89B7B0
:10061000816089BF1EBC8EB582608EBD8FB5816042
:100620008FBD3298319A309A379A61E087E06BDD5E
:1006300061E089E068DD61E08AE065DD61E088E035
:1006400062DD60E080E05FDD60E083E05CDD60E073
:1006500081E059DD60E082E056DD60E085E053DD59
:1006600061E081E022DD61E082E01FDD449A439A8F
:1006700061E089E01ADD60E08AE017DD83B7887FFA
:10068000816083BF60E088E010DD80E090E077DD8E
:10069000439A8AB380658ABBDC9ADE9AD69888EA48
:1006A0008DB980EF8EB97894C0E0D0E02097F1F357
:1006B000A7DCFCCF0024552704C0080E591F880F63
:1006C000991F009729F076956795B8F37105B9F7EA
:1006D000802D952F08950024A7FD00942A0F301D2A
:1006E000401D501D601D701D801D901D0895F894C3
:0206F000FFCF3A
:00000001FF
